{
  "contractName": "Chama",
  "abi": [
    {
      "inputs": [
        {
          "internalType": "address",
          "name": "_treasurer",
          "type": "address"
        },
        {
          "internalType": "address",
          "name": "_priceFeed",
          "type": "address"
        },
        {
          "internalType": "address",
          "name": "_userRegistry",
          "type": "address"
        }
      ],
      "stateMutability": "nonpayable",
      "type": "constructor"
    },
    {
      "anonymous": false,
      "inputs": [
        {
          "indexed": true,
          "internalType": "uint256",
          "name": "chamaId",
          "type": "uint256"
        },
        {
          "indexed": true,
          "internalType": "address",
          "name": "chamaOwner",
          "type": "address"
        },
        {
          "indexed": false,
          "internalType": "string",
          "name": "chamaName",
          "type": "string"
        },
        {
          "indexed": false,
          "internalType": "string",
          "name": "chamaDescription",
          "type": "string"
        },
        {
          "indexed": false,
          "internalType": "uint256",
          "name": "minContributionAmount",
          "type": "uint256"
        },
        {
          "indexed": false,
          "internalType": "uint256",
          "name": "maxContributionAmount",
          "type": "uint256"
        },
        {
          "indexed": false,
          "internalType": "uint256",
          "name": "contributionCycleDuration",
          "type": "uint256"
        }
      ],
      "name": "ChamaCreated",
      "type": "event"
    },
    {
      "anonymous": false,
      "inputs": [
        {
          "indexed": true,
          "internalType": "uint256",
          "name": "chamaId",
          "type": "uint256"
        },
        {
          "indexed": false,
          "internalType": "uint256",
          "name": "minContributionAmount",
          "type": "uint256"
        },
        {
          "indexed": false,
          "internalType": "uint256",
          "name": "maxContributionAmount",
          "type": "uint256"
        },
        {
          "indexed": false,
          "internalType": "uint256",
          "name": "contributionCycleDuration",
          "type": "uint256"
        }
      ],
      "name": "ChamaUpdated",
      "type": "event"
    },
    {
      "anonymous": false,
      "inputs": [
        {
          "indexed": true,
          "internalType": "uint256",
          "name": "chamaId",
          "type": "uint256"
        },
        {
          "indexed": true,
          "internalType": "address",
          "name": "memberAddress",
          "type": "address"
        },
        {
          "indexed": false,
          "internalType": "uint256",
          "name": "contribution",
          "type": "uint256"
        }
      ],
      "name": "ContributionMade",
      "type": "event"
    },
    {
      "anonymous": false,
      "inputs": [
        {
          "indexed": true,
          "internalType": "uint256",
          "name": "chamaId",
          "type": "uint256"
        },
        {
          "indexed": true,
          "internalType": "uint256",
          "name": "memberId",
          "type": "uint256"
        },
        {
          "indexed": true,
          "internalType": "address",
          "name": "memberAddress",
          "type": "address"
        },
        {
          "indexed": false,
          "internalType": "uint256",
          "name": "contribution",
          "type": "uint256"
        },
        {
          "indexed": false,
          "internalType": "uint256",
          "name": "shares",
          "type": "uint256"
        }
      ],
      "name": "MemberAdded",
      "type": "event"
    },
    {
      "anonymous": false,
      "inputs": [
        {
          "indexed": true,
          "internalType": "uint256",
          "name": "chamaId",
          "type": "uint256"
        },
        {
          "indexed": true,
          "internalType": "uint256",
          "name": "memberId",
          "type": "uint256"
        },
        {
          "indexed": false,
          "internalType": "uint256",
          "name": "shares",
          "type": "uint256"
        }
      ],
      "name": "ShareDistribution",
      "type": "event"
    },
    {
      "anonymous": false,
      "inputs": [
        {
          "indexed": true,
          "internalType": "uint256",
          "name": "chamaId",
          "type": "uint256"
        },
        {
          "indexed": true,
          "internalType": "uint256",
          "name": "memberId",
          "type": "uint256"
        },
        {
          "indexed": false,
          "internalType": "uint256",
          "name": "proposalId",
          "type": "uint256"
        }
      ],
      "name": "VoteCasted",
      "type": "event"
    },
    {
      "inputs": [
        {
          "internalType": "uint256",
          "name": "",
          "type": "uint256"
        }
      ],
      "name": "chamas",
      "outputs": [
        {
          "internalType": "address",
          "name": "chamaOwner",
          "type": "address"
        },
        {
          "internalType": "string",
          "name": "chamaName",
          "type": "string"
        },
        {
          "internalType": "string",
          "name": "chamaDescription",
          "type": "string"
        },
        {
          "internalType": "uint256",
          "name": "minContributionAmount",
          "type": "uint256"
        },
        {
          "internalType": "uint256",
          "name": "maxContributionAmount",
          "type": "uint256"
        },
        {
          "internalType": "uint256",
          "name": "contributionCycleDuration",
          "type": "uint256"
        },
        {
          "internalType": "uint256",
          "name": "lastContributionCycleStart",
          "type": "uint256"
        },
        {
          "internalType": "uint256",
          "name": "totalContributions",
          "type": "uint256"
        },
        {
          "internalType": "uint256",
          "name": "totalShares",
          "type": "uint256"
        },
        {
          "internalType": "uint256",
          "name": "nextMemberId",
          "type": "uint256"
        }
      ],
      "stateMutability": "view",
      "type": "function",
      "constant": true
    },
    {
      "inputs": [],
      "name": "nextChamaId",
      "outputs": [
        {
          "internalType": "uint256",
          "name": "",
          "type": "uint256"
        }
      ],
      "stateMutability": "view",
      "type": "function",
      "constant": true
    },
    {
      "inputs": [],
      "name": "treasurer",
      "outputs": [
        {
          "internalType": "address",
          "name": "",
          "type": "address"
        }
      ],
      "stateMutability": "view",
      "type": "function",
      "constant": true
    },
    {
      "inputs": [
        {
          "internalType": "uint256",
          "name": "_minContributionAmount",
          "type": "uint256"
        },
        {
          "internalType": "uint256",
          "name": "_maxContributionAmount",
          "type": "uint256"
        },
        {
          "internalType": "uint256",
          "name": "_contributionCycleDuration",
          "type": "uint256"
        },
        {
          "internalType": "address",
          "name": "_chamaOwner",
          "type": "address"
        },
        {
          "internalType": "string",
          "name": "_chamaName",
          "type": "string"
        },
        {
          "internalType": "string",
          "name": "_chamaDescription",
          "type": "string"
        }
      ],
      "name": "createChama",
      "outputs": [],
      "stateMutability": "nonpayable",
      "type": "function"
    },
    {
      "inputs": [
        {
          "internalType": "uint256",
          "name": "_chamaId",
          "type": "uint256"
        }
      ],
      "name": "joinChama",
      "outputs": [],
      "stateMutability": "payable",
      "type": "function",
      "payable": true
    },
    {
      "inputs": [
        {
          "internalType": "uint256",
          "name": "_chamaId",
          "type": "uint256"
        }
      ],
      "name": "makeContribution",
      "outputs": [],
      "stateMutability": "payable",
      "type": "function",
      "payable": true
    },
    {
      "inputs": [
        {
          "internalType": "uint256",
          "name": "_chamaId",
          "type": "uint256"
        },
        {
          "internalType": "uint256",
          "name": "_memberId",
          "type": "uint256"
        },
        {
          "internalType": "uint256",
          "name": "_shares",
          "type": "uint256"
        }
      ],
      "name": "distributeShares",
      "outputs": [],
      "stateMutability": "nonpayable",
      "type": "function"
    },
    {
      "inputs": [
        {
          "internalType": "uint256",
          "name": "_chamaId",
          "type": "uint256"
        },
        {
          "internalType": "uint256",
          "name": "_memberId",
          "type": "uint256"
        },
        {
          "internalType": "uint256",
          "name": "_proposalId",
          "type": "uint256"
        }
      ],
      "name": "proposeVote",
      "outputs": [],
      "stateMutability": "nonpayable",
      "type": "function"
    },
    {
      "inputs": [
        {
          "internalType": "uint256",
          "name": "_chamaId",
          "type": "uint256"
        },
        {
          "internalType": "uint256",
          "name": "_minContributionAmount",
          "type": "uint256"
        },
        {
          "internalType": "uint256",
          "name": "_maxContributionAmount",
          "type": "uint256"
        },
        {
          "internalType": "uint256",
          "name": "_contributionCycleDuration",
          "type": "uint256"
        }
      ],
      "name": "updateChama",
      "outputs": [],
      "stateMutability": "nonpayable",
      "type": "function"
    },
    {
      "inputs": [
        {
          "internalType": "uint256",
          "name": "_chamaId",
          "type": "uint256"
        }
      ],
      "name": "deleteChama",
      "outputs": [],
      "stateMutability": "nonpayable",
      "type": "function"
    },
    {
      "inputs": [
        {
          "internalType": "uint256",
          "name": "_chamaId",
          "type": "uint256"
        },
        {
          "internalType": "address",
          "name": "_memberAddress",
          "type": "address"
        }
      ],
      "name": "getMemberId",
      "outputs": [
        {
          "internalType": "uint256",
          "name": "",
          "type": "uint256"
        }
      ],
      "stateMutability": "view",
      "type": "function",
      "constant": true
    },
    {
      "inputs": [
        {
          "internalType": "uint256",
          "name": "_chamaId",
          "type": "uint256"
        }
      ],
      "name": "isContributionCycleActive",
      "outputs": [
        {
          "internalType": "bool",
          "name": "",
          "type": "bool"
        }
      ],
      "stateMutability": "view",
      "type": "function",
      "constant": true
    },
    {
      "inputs": [
        {
          "internalType": "uint256",
          "name": "_chamaId",
          "type": "uint256"
        }
      ],
      "name": "startNextContributionCycle",
      "outputs": [],
      "stateMutability": "nonpayable",
      "type": "function"
    },
    {
      "inputs": [
        {
          "internalType": "uint256",
          "name": "_chamaId",
          "type": "uint256"
        }
      ],
      "name": "getChamaDetails",
      "outputs": [
        {
          "internalType": "uint256",
          "name": "chamaId",
          "type": "uint256"
        },
        {
          "internalType": "address",
          "name": "chamaOwner",
          "type": "address"
        },
        {
          "internalType": "string",
          "name": "chamaName",
          "type": "string"
        },
        {
          "internalType": "string",
          "name": "chamaDescription",
          "type": "string"
        },
        {
          "internalType": "uint256",
          "name": "minContributionAmount",
          "type": "uint256"
        },
        {
          "internalType": "uint256",
          "name": "maxContributionAmount",
          "type": "uint256"
        },
        {
          "internalType": "uint256",
          "name": "contributionCycleDuration",
          "type": "uint256"
        }
      ],
      "stateMutability": "view",
      "type": "function",
      "constant": true
    },
    {
      "inputs": [
        {
          "internalType": "uint256",
          "name": "_chamaId",
          "type": "uint256"
        },
        {
          "internalType": "uint256",
          "name": "_memberId",
          "type": "uint256"
        }
      ],
      "name": "getMemberDetails",
      "outputs": [
        {
          "internalType": "uint256",
          "name": "memberId",
          "type": "uint256"
        },
        {
          "internalType": "address",
          "name": "memberAddress",
          "type": "address"
        },
        {
          "internalType": "uint256",
          "name": "contribution",
          "type": "uint256"
        },
        {
          "internalType": "uint256",
          "name": "shares",
          "type": "uint256"
        },
        {
          "internalType": "bool",
          "name": "active",
          "type": "bool"
        }
      ],
      "stateMutability": "view",
      "type": "function",
      "constant": true
    },
    {
      "inputs": [],
      "name": "getAllChamas",
      "outputs": [
        {
          "internalType": "uint256[]",
          "name": "",
          "type": "uint256[]"
        }
      ],
      "stateMutability": "view",
      "type": "function",
      "constant": true
    },
    {
      "inputs": [
        {
          "internalType": "address",
          "name": "_user",
          "type": "address"
        }
      ],
      "name": "getOwnedChamas",
      "outputs": [
        {
          "internalType": "uint256[]",
          "name": "",
          "type": "uint256[]"
        }
      ],
      "stateMutability": "view",
      "type": "function",
      "constant": true
    },
    {
      "inputs": [
        {
          "internalType": "address",
          "name": "_user",
          "type": "address"
        }
      ],
      "name": "getJoinedChamas",
      "outputs": [
        {
          "internalType": "uint256[]",
          "name": "",
          "type": "uint256[]"
        }
      ],
      "stateMutability": "view",
      "type": "function",
      "constant": true
    }
  ],
  "bytecode": "0x60806040523480156200001157600080fd5b5060405162003fd938038062003fd9833981810160405281019062000037919062000174565b826000806101000a81548173ffffffffffffffffffffffffffffffffffffffff021916908373ffffffffffffffffffffffffffffffffffffffff16021790555081600160006101000a81548173ffffffffffffffffffffffffffffffffffffffff021916908373ffffffffffffffffffffffffffffffffffffffff16021790555080600460006101000a81548173ffffffffffffffffffffffffffffffffffffffff021916908373ffffffffffffffffffffffffffffffffffffffff1602179055506001600381905550505050620001d0565b600080fd5b600073ffffffffffffffffffffffffffffffffffffffff82169050919050565b60006200013c826200010f565b9050919050565b6200014e816200012f565b81146200015a57600080fd5b50565b6000815190506200016e8162000143565b92915050565b60008060006060848603121562000190576200018f6200010a565b5b6000620001a0868287016200015d565b9350506020620001b3868287016200015d565b9250506040620001c6868287016200015d565b9150509250925092565b613df980620001e06000396000f3fe6080604052600436106101095760003560e01c806375b0f0c511610095578063d83c686811610064578063d83c68681461036a578063d8668bad146103ad578063d9778d36146103ea578063db858db314610427578063fda49eb41461045057610109565b806375b0f0c5146102b05780637d6a0b68146102db57806394d27ae614610304578063abd272541461032d57610109565b8063360a2bcb116100dc578063360a2bcb146101e557806343533e1d1461020157806345680bad1461021d57806351e8eb191461025e57806357c236a91461028757610109565b806304e165f21461010e5780630b5d70851461013757806318725e0e1461017d5780632cf235c6146101ba575b600080fd5b34801561011a57600080fd5b50610135600480360381019061013091906124c8565b61047b565b005b34801561014357600080fd5b5061015e6004803603810190610159919061252f565b6106a3565b6040516101749a9998979695949392919061263c565b60405180910390f35b34801561018957600080fd5b506101a4600480360381019061019f919061252f565b610827565b6040516101b19190612701565b60405180910390f35b3480156101c657600080fd5b506101cf61086d565b6040516101dc919061271c565b60405180910390f35b6101ff60048036038101906101fa919061252f565b610873565b005b61021b6004803603810190610216919061252f565b610b14565b005b34801561022957600080fd5b50610244600480360381019061023f9190612737565b61105b565b604051610255959493929190612777565b60405180910390f35b34801561026a57600080fd5b506102856004803603810190610280919061252f565b611352565b005b34801561029357600080fd5b506102ae60048036038101906102a9919061252f565b6114a9565b005b3480156102bc57600080fd5b506102c561162b565b6040516102d29190612888565b60405180910390f35b3480156102e757600080fd5b5061030260048036038101906102fd9190612a0b565b6116e0565b005b34801561031057600080fd5b5061032b60048036038101906103269190612ad0565b611a09565b005b34801561033957600080fd5b50610354600480360381019061034f9190612b23565b611be7565b6040516103619190612888565b60405180910390f35b34801561037657600080fd5b50610391600480360381019061038c919061252f565b611d0c565b6040516103a49796959493929190612b50565b60405180910390f35b3480156103b957600080fd5b506103d460048036038101906103cf9190612bcd565b611ee1565b6040516103e1919061271c565b60405180910390f35b3480156103f657600080fd5b50610411600480360381019061040c9190612b23565b61203a565b60405161041e9190612888565b60405180910390f35b34801561043357600080fd5b5061044e60048036038101906104499190612ad0565b612162565b005b34801561045c57600080fd5b50610465612351565b6040516104729190612c0d565b60405180910390f35b833373ffffffffffffffffffffffffffffffffffffffff166002600083815260200190815260200160002060000160009054906101000a900473ffffffffffffffffffffffffffffffffffffffff1673ffffffffffffffffffffffffffffffffffffffff1614610520576040517f08c379a000000000000000000000000000000000000000000000000000000000815260040161051790612c9a565b60405180910390fd5b6003548510610564576040517f08c379a000000000000000000000000000000000000000000000000000000000815260040161055b90612d06565b60405180910390fd5b600084116105a7576040517f08c379a000000000000000000000000000000000000000000000000000000000815260040161059e90612d98565b60405180910390fd5b838310156105ea576040517f08c379a00000000000000000000000000000000000000000000000000000000081526004016105e190612e50565b60405180910390fd5b6000821161062d576040517f08c379a000000000000000000000000000000000000000000000000000000000815260040161062490612ee2565b60405180910390fd5b6000600260008781526020019081526020016000209050848160030181905550838160040181905550828160050181905550857fe665de858f219d643c004bf4d44af476b170cddfd45627a6723e61fd7129183586868660405161069393929190612f02565b60405180910390a2505050505050565b60026020528060005260406000206000915090508060000160009054906101000a900473ffffffffffffffffffffffffffffffffffffffff16908060010180546106ec90612f68565b80601f016020809104026020016040519081016040528092919081815260200182805461071890612f68565b80156107655780601f1061073a57610100808354040283529160200191610765565b820191906000526020600020905b81548152906001019060200180831161074857829003601f168201915b50505050509080600201805461077a90612f68565b80601f01602080910402602001604051908101604052809291908181526020018280546107a690612f68565b80156107f35780601f106107c8576101008083540402835291602001916107f3565b820191906000526020600020905b8154815290600101906020018083116107d657829003601f168201915b505050505090806003015490806004015490806005015490806006015490806007015490806008015490806009015490508a565b600080600260008481526020019081526020016000209050806006015442101580156108655750806005015481600601546108629190612fc8565b42105b915050919050565b60035481565b60035481106108b7576040517f08c379a00000000000000000000000000000000000000000000000000000000081526004016108ae90612d06565b60405180910390fd5b60026000828152602001908152602001600020600b0160003373ffffffffffffffffffffffffffffffffffffffff1673ffffffffffffffffffffffffffffffffffffffff16815260200190815260200160002060009054906101000a900460ff16610957576040517f08c379a000000000000000000000000000000000000000000000000000000000815260040161094e90613048565b60405180910390fd5b60026000828152602001908152602001600020600301543410156109b0576040517f08c379a00000000000000000000000000000000000000000000000000000000081526004016109a7906130b4565b60405180910390fd5b6002600082815260200190815260200160002060040154341115610a09576040517f08c379a0000000000000000000000000000000000000000000000000000000008152600401610a0090613120565b60405180910390fd5b610a1281610827565b610a51576040517f08c379a0000000000000000000000000000000000000000000000000000000008152600401610a489061318c565b60405180910390fd5b6000600260008381526020019081526020016000209050600081600a016000610a7a8533611ee1565b8152602001908152602001600020905034816002016000828254610a9e9190612fc8565b9250508190555034826007016000828254610ab99190612fc8565b925050819055503373ffffffffffffffffffffffffffffffffffffffff16837f0a4a91237423e0a1766a761c7cb029311d8b95d6b1b81db1b949a70c98b4e08e34604051610b07919061271c565b60405180910390a3505050565b6003548110610b58576040517f08c379a0000000000000000000000000000000000000000000000000000000008152600401610b4f90612d06565b60405180910390fd5b600073ffffffffffffffffffffffffffffffffffffffff166002600083815260200190815260200160002060000160009054906101000a900473ffffffffffffffffffffffffffffffffffffffff1673ffffffffffffffffffffffffffffffffffffffff1603610bfd576040517f08c379a0000000000000000000000000000000000000000000000000000000008152600401610bf4906131f8565b60405180910390fd5b60026000828152602001908152602001600020600b0160003373ffffffffffffffffffffffffffffffffffffffff1673ffffffffffffffffffffffffffffffffffffffff16815260200190815260200160002060009054906101000a900460ff1615610c9e576040517f08c379a0000000000000000000000000000000000000000000000000000000008152600401610c9590613264565b60405180910390fd5b600460009054906101000a900473ffffffffffffffffffffffffffffffffffffffff1673ffffffffffffffffffffffffffffffffffffffff1663c3c5a547336040518263ffffffff1660e01b8152600401610cf99190612c0d565b602060405180830381865afa158015610d16573d6000803e3d6000fd5b505050506040513d601f19601f82011682018060405250810190610d3a91906132b0565b610d79576040517f08c379a0000000000000000000000000000000000000000000000000000000008152600401610d7090613329565b60405180910390fd5b60006002600083815260200190815260200160002090508060000160009054906101000a900473ffffffffffffffffffffffffffffffffffffffff1673ffffffffffffffffffffffffffffffffffffffff163373ffffffffffffffffffffffffffffffffffffffff1603610e22576040517f08c379a0000000000000000000000000000000000000000000000000000000008152600401610e19906133bb565b60405180910390fd5b60003490506000818360070154610e399190612fc8565b90506000836008015490506000808311610e54576000610e6c565b828285610e6191906133db565b610e6b9190613464565b5b90506040518060a00160405280866009015481526020013373ffffffffffffffffffffffffffffffffffffffff1681526020018581526020018281526020016001151581525085600a016000876009015481526020019081526020016000206000820151816000015560208201518160010160006101000a81548173ffffffffffffffffffffffffffffffffffffffff021916908373ffffffffffffffffffffffffffffffffffffffff160217905550604082015181600201556060820151816003015560808201518160040160006101000a81548160ff021916908315150217905550905050600185600b0160003373ffffffffffffffffffffffffffffffffffffffff1673ffffffffffffffffffffffffffffffffffffffff16815260200190815260200160002060006101000a81548160ff02191690831515021790555083856007016000828254610fc19190612fc8565b9250508190555080856008016000828254610fdc9190612fc8565b925050819055503373ffffffffffffffffffffffffffffffffffffffff168560090154877fe30c80816942015cb8b16d599437b50e0e44a24cf27540f81c27389291858afe8785604051611031929190613495565b60405180910390a484600901600081548092919061104e906134be565b9190505550505050505050565b600080600080600060035487106110a7576040517f08c379a000000000000000000000000000000000000000000000000000000000815260040161109e90612d06565b60405180910390fd5b60006002600089815260200190815260200160002090506000808803611179578160000160009054906101000a900473ffffffffffffffffffffffffffffffffffffffff1673ffffffffffffffffffffffffffffffffffffffff163373ffffffffffffffffffffffffffffffffffffffff1614611159576040517f08c379a000000000000000000000000000000000000000000000000000000000815260040161115090613578565b60405180910390fd5b81600a016000836009015481526020019081526020016000209050611223565b81600a01600089815260200190815260200160002090503373ffffffffffffffffffffffffffffffffffffffff168160010160009054906101000a900473ffffffffffffffffffffffffffffffffffffffff1673ffffffffffffffffffffffffffffffffffffffff1614611222576040517f08c379a00000000000000000000000000000000000000000000000000000000081526004016112199061360a565b60405180910390fd5b5b6000806000600460009054906101000a900473ffffffffffffffffffffffffffffffffffffffff1673ffffffffffffffffffffffffffffffffffffffff16636386c1c78560010160009054906101000a900473ffffffffffffffffffffffffffffffffffffffff166040518263ffffffff1660e01b81526004016112a79190612c0d565b600060405180830381865afa1580156112c4573d6000803e3d6000fd5b505050506040513d6000823e3d601f19601f820116820180604052508101906112ed919061369a565b92509250925083600001548460010160009054906101000a900473ffffffffffffffffffffffffffffffffffffffff16856002015486600301548760040160009054906101000a900460ff169950995099509950995050505050509295509295909350565b803373ffffffffffffffffffffffffffffffffffffffff166002600083815260200190815260200160002060000160009054906101000a900473ffffffffffffffffffffffffffffffffffffffff1673ffffffffffffffffffffffffffffffffffffffff16146113f7576040517f08c379a00000000000000000000000000000000000000000000000000000000081526004016113ee90612c9a565b60405180910390fd5b600354821061143b576040517f08c379a000000000000000000000000000000000000000000000000000000000815260040161143290612d06565b60405180910390fd5b600060026000848152602001908152602001600020905061145b83610827565b1561149b576040517f08c379a0000000000000000000000000000000000000000000000000000000008152600401611492906137b3565b60405180910390fd5b428160060181905550505050565b803373ffffffffffffffffffffffffffffffffffffffff166002600083815260200190815260200160002060000160009054906101000a900473ffffffffffffffffffffffffffffffffffffffff1673ffffffffffffffffffffffffffffffffffffffff161461154e576040517f08c379a000000000000000000000000000000000000000000000000000000000815260040161154590612c9a565b60405180910390fd5b6003548210611592576040517f08c379a000000000000000000000000000000000000000000000000000000000815260040161158990612d06565b60405180910390fd5b60026000838152602001908152602001600020600080820160006101000a81549073ffffffffffffffffffffffffffffffffffffffff02191690556001820160006115dd9190612421565b6002820160006115ed9190612421565b600382016000905560048201600090556005820160009055600682016000905560078201600090556008820160009055600982016000905550505050565b60606000600160035461163e91906137d3565b67ffffffffffffffff811115611657576116566128e0565b5b6040519080825280602002602001820160405280156116855781602001602082028036833780820191505090505b5090506000600190505b6003548110156116d85780826001836116a891906137d3565b815181106116b9576116b8613807565b5b60200260200101818152505080806116d0906134be565b91505061168f565b508091505090565b60008611611723576040517f08c379a000000000000000000000000000000000000000000000000000000000815260040161171a90612d98565b60405180910390fd5b85851015611766576040517f08c379a000000000000000000000000000000000000000000000000000000000815260040161175d90612e50565b60405180910390fd5b600084116117a9576040517f08c379a00000000000000000000000000000000000000000000000000000000081526004016117a090612ee2565b60405180910390fd5b600460009054906101000a900473ffffffffffffffffffffffffffffffffffffffff1673ffffffffffffffffffffffffffffffffffffffff1663c3c5a547846040518263ffffffff1660e01b81526004016118049190612c0d565b602060405180830381865afa158015611821573d6000803e3d6000fd5b505050506040513d601f19601f8201168201806040525081019061184591906132b0565b611884576040517f08c379a000000000000000000000000000000000000000000000000000000000815260040161187b90613882565b60405180910390fd5b600073ffffffffffffffffffffffffffffffffffffffff168373ffffffffffffffffffffffffffffffffffffffff16036118f3576040517f08c379a00000000000000000000000000000000000000000000000000000000081526004016118ea906138ee565b60405180910390fd5b6000825111611937576040517f08c379a000000000000000000000000000000000000000000000000000000000815260040161192e9061395a565b60405180910390fd5b600081511161197b576040517f08c379a0000000000000000000000000000000000000000000000000000000008152600401611972906139c6565b60405180910390fd5b60006003549050611991818585858b8b8b612375565b8373ffffffffffffffffffffffffffffffffffffffff16817fe0645259c49ba40f1c6bc0aa662aabff4fdc530f457f6eb0033c0985daa2794a85858b8b8b6040516119e09594939291906139e6565b60405180910390a3600360008154809291906119fb906134be565b919050555050505050505050565b60008054906101000a900473ffffffffffffffffffffffffffffffffffffffff1673ffffffffffffffffffffffffffffffffffffffff163373ffffffffffffffffffffffffffffffffffffffff1614611a97576040517f08c379a0000000000000000000000000000000000000000000000000000000008152600401611a8e90613ab9565b60405180910390fd5b6003548310611adb576040517f08c379a0000000000000000000000000000000000000000000000000000000008152600401611ad290612d06565b60405180910390fd5b60026000848152602001908152602001600020600a01600083815260200190815260200160002060040160009054906101000a900460ff16611b52576040517f08c379a0000000000000000000000000000000000000000000000000000000008152600401611b4990613b25565b60405180910390fd5b6000600260008581526020019081526020016000209050600181600c016000858152602001908152602001600020600084815260200190815260200160002060006101000a81548160ff02191690831515021790555082847f6c8fe8654841aaa56592b5931ed24c534b441e31892b8e152f4e5daa1ee6da2684604051611bd9919061271c565b60405180910390a350505050565b606060006001600354611bfa91906137d3565b67ffffffffffffffff811115611c1357611c126128e0565b5b604051908082528060200260200182016040528015611c415781602001602082028036833780820191505090505b509050600080600190505b600354811015611cfe5760026000828152602001908152602001600020600b0160008673ffffffffffffffffffffffffffffffffffffffff1673ffffffffffffffffffffffffffffffffffffffff16815260200190815260200160002060009054906101000a900460ff1615611ceb5780838381518110611cd057611ccf613807565b5b6020026020010181815250508180611ce7906134be565b9250505b8080611cf6906134be565b915050611c4c565b508082528192505050919050565b60008060608060008060006003548810611d5b576040517f08c379a0000000000000000000000000000000000000000000000000000000008152600401611d5290612d06565b60405180910390fd5b6000600260008a81526020019081526020016000209050888160000160009054906101000a900473ffffffffffffffffffffffffffffffffffffffff168260010183600201846003015485600401548660050154848054611dbb90612f68565b80601f0160208091040260200160405190810160405280929190818152602001828054611de790612f68565b8015611e345780601f10611e0957610100808354040283529160200191611e34565b820191906000526020600020905b815481529060010190602001808311611e1757829003601f168201915b50505050509450838054611e4790612f68565b80601f0160208091040260200160405190810160405280929190818152602001828054611e7390612f68565b8015611ec05780601f10611e9557610100808354040283529160200191611ec0565b820191906000526020600020905b815481529060010190602001808311611ea357829003601f168201915b50505050509350975097509750975097509750975050919395979092949650565b6000806002600085815260200190815260200160002090508060000160009054906101000a900473ffffffffffffffffffffffffffffffffffffffff1673ffffffffffffffffffffffffffffffffffffffff168373ffffffffffffffffffffffffffffffffffffffff1603611f5d578060090154915050612034565b6000600190505b8160090154811015611ff8578373ffffffffffffffffffffffffffffffffffffffff1682600a01600083815260200190815260200160002060010160009054906101000a900473ffffffffffffffffffffffffffffffffffffffff1673ffffffffffffffffffffffffffffffffffffffff1603611fe5578092505050612034565b8080611ff0906134be565b915050611f64565b506040517f08c379a000000000000000000000000000000000000000000000000000000000815260040161202b90613b25565b60405180910390fd5b92915050565b60606000600160035461204d91906137d3565b67ffffffffffffffff811115612066576120656128e0565b5b6040519080825280602002602001820160405280156120945781602001602082028036833780820191505090505b509050600080600190505b600354811015612154578473ffffffffffffffffffffffffffffffffffffffff166002600083815260200190815260200160002060000160009054906101000a900473ffffffffffffffffffffffffffffffffffffffff1673ffffffffffffffffffffffffffffffffffffffff1603612141578083838151811061212657612125613807565b5b602002602001018181525050818061213d906134be565b9250505b808061214c906134be565b91505061209f565b508082528192505050919050565b60008054906101000a900473ffffffffffffffffffffffffffffffffffffffff1673ffffffffffffffffffffffffffffffffffffffff163373ffffffffffffffffffffffffffffffffffffffff16146121f0576040517f08c379a00000000000000000000000000000000000000000000000000000000081526004016121e790613ab9565b60405180910390fd5b6003548310612234576040517f08c379a000000000000000000000000000000000000000000000000000000000815260040161222b90612d06565b60405180910390fd5b60026000848152602001908152602001600020600a01600083815260200190815260200160002060040160009054906101000a900460ff166122ab576040517f08c379a00000000000000000000000000000000000000000000000000000000081526004016122a290613b25565b60405180910390fd5b6000600260008581526020019081526020016000209050600081600a0160008581526020019081526020016000209050828160030160008282546122ef9190612fc8565b925050819055508282600801600082825461230a9190612fc8565b9250508190555083857f535bd906c19cb91a42ab2ec54668e11d296a62957328fe7b5a80091384c1bba785604051612342919061271c565b60405180910390a35050505050565b60008054906101000a900473ffffffffffffffffffffffffffffffffffffffff1681565b6000600260008981526020019081526020016000209050868160000160006101000a81548173ffffffffffffffffffffffffffffffffffffffff021916908373ffffffffffffffffffffffffffffffffffffffff160217905550858160010190816123e09190613cf1565b50848160020190816123f29190613cf1565b508381600301819055508281600401819055508181600501819055504281600601819055505050505050505050565b50805461242d90612f68565b6000825580601f1061243f575061245e565b601f01602090049060005260206000209081019061245d9190612461565b5b50565b5b8082111561247a576000816000905550600101612462565b5090565b6000604051905090565b600080fd5b600080fd5b6000819050919050565b6124a581612492565b81146124b057600080fd5b50565b6000813590506124c28161249c565b92915050565b600080600080608085870312156124e2576124e1612488565b5b60006124f0878288016124b3565b9450506020612501878288016124b3565b9350506040612512878288016124b3565b9250506060612523878288016124b3565b91505092959194509250565b60006020828403121561254557612544612488565b5b6000612553848285016124b3565b91505092915050565b600073ffffffffffffffffffffffffffffffffffffffff82169050919050565b60006125878261255c565b9050919050565b6125978161257c565b82525050565b600081519050919050565b600082825260208201905092915050565b60005b838110156125d75780820151818401526020810190506125bc565b60008484015250505050565b6000601f19601f8301169050919050565b60006125ff8261259d565b61260981856125a8565b93506126198185602086016125b9565b612622816125e3565b840191505092915050565b61263681612492565b82525050565b600061014082019050612652600083018d61258e565b8181036020830152612664818c6125f4565b90508181036040830152612678818b6125f4565b9050612687606083018a61262d565b612694608083018961262d565b6126a160a083018861262d565b6126ae60c083018761262d565b6126bb60e083018661262d565b6126c961010083018561262d565b6126d761012083018461262d565b9b9a5050505050505050505050565b60008115159050919050565b6126fb816126e6565b82525050565b600060208201905061271660008301846126f2565b92915050565b6000602082019050612731600083018461262d565b92915050565b6000806040838503121561274e5761274d612488565b5b600061275c858286016124b3565b925050602061276d858286016124b3565b9150509250929050565b600060a08201905061278c600083018861262d565b612799602083018761258e565b6127a6604083018661262d565b6127b3606083018561262d565b6127c060808301846126f2565b9695505050505050565b600081519050919050565b600082825260208201905092915050565b6000819050602082019050919050565b6127ff81612492565b82525050565b600061281183836127f6565b60208301905092915050565b6000602082019050919050565b6000612835826127ca565b61283f81856127d5565b935061284a836127e6565b8060005b8381101561287b5781516128628882612805565b975061286d8361281d565b92505060018101905061284e565b5085935050505092915050565b600060208201905081810360008301526128a2818461282a565b905092915050565b6128b38161257c565b81146128be57600080fd5b50565b6000813590506128d0816128aa565b92915050565b600080fd5b600080fd5b7f4e487b7100000000000000000000000000000000000000000000000000000000600052604160045260246000fd5b612918826125e3565b810181811067ffffffffffffffff82111715612937576129366128e0565b5b80604052505050565b600061294a61247e565b9050612956828261290f565b919050565b600067ffffffffffffffff821115612976576129756128e0565b5b61297f826125e3565b9050602081019050919050565b82818337600083830152505050565b60006129ae6129a98461295b565b612940565b9050828152602081018484840111156129ca576129c96128db565b5b6129d584828561298c565b509392505050565b600082601f8301126129f2576129f16128d6565b5b8135612a0284826020860161299b565b91505092915050565b60008060008060008060c08789031215612a2857612a27612488565b5b6000612a3689828a016124b3565b9650506020612a4789828a016124b3565b9550506040612a5889828a016124b3565b9450506060612a6989828a016128c1565b935050608087013567ffffffffffffffff811115612a8a57612a8961248d565b5b612a9689828a016129dd565b92505060a087013567ffffffffffffffff811115612ab757612ab661248d565b5b612ac389828a016129dd565b9150509295509295509295565b600080600060608486031215612ae957612ae8612488565b5b6000612af7868287016124b3565b9350506020612b08868287016124b3565b9250506040612b19868287016124b3565b9150509250925092565b600060208284031215612b3957612b38612488565b5b6000612b47848285016128c1565b91505092915050565b600060e082019050612b65600083018a61262d565b612b72602083018961258e565b8181036040830152612b8481886125f4565b90508181036060830152612b9881876125f4565b9050612ba7608083018661262d565b612bb460a083018561262d565b612bc160c083018461262d565b98975050505050505050565b60008060408385031215612be457612be3612488565b5b6000612bf2858286016124b3565b9250506020612c03858286016128c1565b9150509250929050565b6000602082019050612c22600083018461258e565b92915050565b7f4f6e6c7920746865206368616d61206f776e65722063616e20706572666f726d60008201527f207468697320616374696f6e0000000000000000000000000000000000000000602082015250565b6000612c84602c836125a8565b9150612c8f82612c28565b604082019050919050565b60006020820190508181036000830152612cb381612c77565b9050919050565b7f496e76616c6964206368616d6120494400000000000000000000000000000000600082015250565b6000612cf06010836125a8565b9150612cfb82612cba565b602082019050919050565b60006020820190508181036000830152612d1f81612ce3565b9050919050565b7f4d696e696d756d20636f6e747269627574696f6e20616d6f756e74206d75737460008201527f2062652067726561746572207468616e207a65726f0000000000000000000000602082015250565b6000612d826035836125a8565b9150612d8d82612d26565b604082019050919050565b60006020820190508181036000830152612db181612d75565b9050919050565b7f4d6178696d756d20636f6e747269627574696f6e20616d6f756e74206d75737460008201527f2062652067726561746572207468616e206f7220657175616c20746f206d696e60208201527f696d756d20636f6e747269627574696f6e20616d6f756e740000000000000000604082015250565b6000612e3a6058836125a8565b9150612e4582612db8565b606082019050919050565b60006020820190508181036000830152612e6981612e2d565b9050919050565b7f436f6e747269627574696f6e206379636c65206475726174696f6e206d75737460008201527f2062652067726561746572207468616e207a65726f0000000000000000000000602082015250565b6000612ecc6035836125a8565b9150612ed782612e70565b604082019050919050565b60006020820190508181036000830152612efb81612ebf565b9050919050565b6000606082019050612f17600083018661262d565b612f24602083018561262d565b612f31604083018461262d565b949350505050565b7f4e487b7100000000000000000000000000000000000000000000000000000000600052602260045260246000fd5b60006002820490506001821680612f8057607f821691505b602082108103612f9357612f92612f39565b5b50919050565b7f4e487b7100000000000000000000000000000000000000000000000000000000600052601160045260246000fd5b6000612fd382612492565b9150612fde83612492565b9250828201905080821115612ff657612ff5612f99565b5b92915050565b7f4e6f742061206d656d6265720000000000000000000000000000000000000000600082015250565b6000613032600c836125a8565b915061303d82612ffc565b602082019050919050565b6000602082019050818103600083015261306181613025565b9050919050565b7f436f6e747269627574696f6e20616d6f756e7420746f6f206c6f770000000000600082015250565b600061309e601b836125a8565b91506130a982613068565b602082019050919050565b600060208201905081810360008301526130cd81613091565b9050919050565b7f436f6e747269627574696f6e20616d6f756e7420746f6f206869676800000000600082015250565b600061310a601c836125a8565b9150613115826130d4565b602082019050919050565b60006020820190508181036000830152613139816130fd565b9050919050565b7f436f6e747269627574696f6e206379636c65206973206e6f7420616374697665600082015250565b60006131766020836125a8565b915061318182613140565b602082019050919050565b600060208201905081810360008301526131a581613169565b9050919050565b7f4368616d6120646f6573206e6f74206578697374000000000000000000000000600082015250565b60006131e26014836125a8565b91506131ed826131ac565b602082019050919050565b60006020820190508181036000830152613211816131d5565b9050919050565b7f416c72656164792061206d656d62657200000000000000000000000000000000600082015250565b600061324e6010836125a8565b915061325982613218565b602082019050919050565b6000602082019050818103600083015261327d81613241565b9050919050565b61328d816126e6565b811461329857600080fd5b50565b6000815190506132aa81613284565b92915050565b6000602082840312156132c6576132c5612488565b5b60006132d48482850161329b565b91505092915050565b7f55736572206973206e6f74207265676973746572656400000000000000000000600082015250565b60006133136016836125a8565b915061331e826132dd565b602082019050919050565b6000602082019050818103600083015261334281613306565b9050919050565b7f4368616d61206f776e65722063616e6e6f74206a6f696e2061732061206d656d60008201527f6265720000000000000000000000000000000000000000000000000000000000602082015250565b60006133a56023836125a8565b91506133b082613349565b604082019050919050565b600060208201905081810360008301526133d481613398565b9050919050565b60006133e682612492565b91506133f183612492565b9250817fffffffffffffffffffffffffffffffffffffffffffffffffffffffffffffffff048311821515161561342a57613429612f99565b5b828202905092915050565b7f4e487b7100000000000000000000000000000000000000000000000000000000600052601260045260246000fd5b600061346f82612492565b915061347a83612492565b92508261348a57613489613435565b5b828204905092915050565b60006040820190506134aa600083018561262d565b6134b7602083018461262d565b9392505050565b60006134c982612492565b91507fffffffffffffffffffffffffffffffffffffffffffffffffffffffffffffffff82036134fb576134fa612f99565b5b600182019050919050565b7f4f6e6c7920746865206368616d61206f776e65722063616e207265747269657660008201527f652074686569722064657461696c730000000000000000000000000000000000602082015250565b6000613562602f836125a8565b915061356d82613506565b604082019050919050565b6000602082019050818103600083015261359181613555565b9050919050565b7f4f6e6c7920746865206d656d6265722063616e2072657472696576652074686560008201527f69722064657461696c7300000000000000000000000000000000000000000000602082015250565b60006135f4602a836125a8565b91506135ff82613598565b604082019050919050565b60006020820190508181036000830152613623816135e7565b9050919050565b600061363d6136388461295b565b612940565b905082815260208101848484011115613659576136586128db565b5b6136648482856125b9565b509392505050565b600082601f830112613681576136806128d6565b5b815161369184826020860161362a565b91505092915050565b6000806000606084860312156136b3576136b2612488565b5b600084015167ffffffffffffffff8111156136d1576136d061248d565b5b6136dd8682870161366c565b935050602084015167ffffffffffffffff8111156136fe576136fd61248d565b5b61370a8682870161366c565b925050604084015167ffffffffffffffff81111561372b5761372a61248d565b5b6137378682870161366c565b9150509250925092565b7f436f6e747269627574696f6e206379636c6520697320616c726561647920616360008201527f7469766500000000000000000000000000000000000000000000000000000000602082015250565b600061379d6024836125a8565b91506137a882613741565b604082019050919050565b600060208201905081810360008301526137cc81613790565b9050919050565b60006137de82612492565b91506137e983612492565b925082820390508181111561380157613800612f99565b5b92915050565b7f4e487b7100000000000000000000000000000000000000000000000000000000600052603260045260246000fd5b7f4368616d61206f776e6572206973206e6f742072656769737465726564000000600082015250565b600061386c601d836125a8565b915061387782613836565b602082019050919050565b6000602082019050818103600083015261389b8161385f565b9050919050565b7f4368616d61206f776e6572206164647265737320697320726571756972656400600082015250565b60006138d8601f836125a8565b91506138e3826138a2565b602082019050919050565b60006020820190508181036000830152613907816138cb565b9050919050565b7f4368616d61206e616d6520697320726571756972656400000000000000000000600082015250565b60006139446016836125a8565b915061394f8261390e565b602082019050919050565b6000602082019050818103600083015261397381613937565b9050919050565b7f4368616d61206465736372697074696f6e206973207265717569726564000000600082015250565b60006139b0601d836125a8565b91506139bb8261397a565b602082019050919050565b600060208201905081810360008301526139df816139a3565b9050919050565b600060a0820190508181036000830152613a0081886125f4565b90508181036020830152613a1481876125f4565b9050613a23604083018661262d565b613a30606083018561262d565b613a3d608083018461262d565b9695505050505050565b7f4f6e6c7920746865207472656173757265722063616e20706572666f726d207460008201527f68697320616374696f6e00000000000000000000000000000000000000000000602082015250565b6000613aa3602a836125a8565b9150613aae82613a47565b604082019050919050565b60006020820190508181036000830152613ad281613a96565b9050919050565b7f4d656d626572206e6f7420666f756e6400000000000000000000000000000000600082015250565b6000613b0f6010836125a8565b9150613b1a82613ad9565b602082019050919050565b60006020820190508181036000830152613b3e81613b02565b9050919050565b60008190508160005260206000209050919050565b60006020601f8301049050919050565b600082821b905092915050565b600060088302613ba77fffffffffffffffffffffffffffffffffffffffffffffffffffffffffffffffff82613b6a565b613bb18683613b6a565b95508019841693508086168417925050509392505050565b6000819050919050565b6000613bee613be9613be484612492565b613bc9565b612492565b9050919050565b6000819050919050565b613c0883613bd3565b613c1c613c1482613bf5565b848454613b77565b825550505050565b600090565b613c31613c24565b613c3c818484613bff565b505050565b5b81811015613c6057613c55600082613c29565b600181019050613c42565b5050565b601f821115613ca557613c7681613b45565b613c7f84613b5a565b81016020851015613c8e578190505b613ca2613c9a85613b5a565b830182613c41565b50505b505050565b600082821c905092915050565b6000613cc860001984600802613caa565b1980831691505092915050565b6000613ce18383613cb7565b9150826002028217905092915050565b613cfa8261259d565b67ffffffffffffffff811115613d1357613d126128e0565b5b613d1d8254612f68565b613d28828285613c64565b600060209050601f831160018114613d5b5760008415613d49578287015190505b613d538582613cd5565b865550613dbb565b601f198416613d6986613b45565b60005b82811015613d9157848901518255600182019150602085019450602081019050613d6c565b86831015613dae5784890151613daa601f891682613cb7565b8355505b6001600288020188555050505b50505050505056fea264697066735822122065300fc5b824acd0608a8909f3d4f5d3409c45ea805925781f881929159da5cc64736f6c63430008100033",
  "immutableReferences": {},
  "source": "// SPDX-License-Identifier: MIT\r\npragma solidity ^0.8.0;\r\n\r\nimport \"@chainlink/contracts/src/v0.8/interfaces/AggregatorV3Interface.sol\";\r\n\r\ncontract UserRegistry {\r\n    struct UserInfo {\r\n        string name;\r\n        string dob;\r\n        string email;\r\n    }\r\n\r\n    mapping(address => UserInfo) private registeredUsers;\r\n\r\n    event UserRegistered(address indexed user, string name, string dob, string email);\r\n    event UserInfoUpdated(address indexed user, string name, string dob, string email);\r\n    event UserDeleted(address indexed user);\r\n\r\n    modifier onlyRegisteredUser(address userAddress) {\r\n        require(bytes(registeredUsers[userAddress].dob).length > 0, \"User not registered\");\r\n        _;\r\n    }\r\n\r\n    function register(address userAddress, string memory name, string memory dob, string memory email) external {\r\n        require(bytes(name).length > 0, \"Name is required\");\r\n        require(bytes(dob).length > 0, \"DOB is required\");\r\n        require(bytes(email).length > 0, \"Email is required\");\r\n        require(bytes(registeredUsers[userAddress].dob).length == 0, \"User already registered\");\r\n\r\n        registeredUsers[userAddress] = UserInfo(name, dob, email);\r\n        emit UserRegistered(userAddress, name, dob, email);\r\n    }\r\n\r\n    function isRegistered(address userAddress) external view returns (bool) {\r\n        return bytes(registeredUsers[userAddress].dob).length > 0;\r\n    }\r\n\r\n    function getUserInfo(address userAddress) external view returns (string memory name, string memory dob, string memory email) {\r\n        UserInfo storage userInfo = registeredUsers[userAddress];\r\n        return (userInfo.name, userInfo.dob, userInfo.email);\r\n    }\r\n\r\n    function updateUserInfo(string memory newName, string memory newDob, string memory newEmail) external onlyRegisteredUser(msg.sender) {\r\n        require(bytes(newName).length > 0, \"Name is required\");\r\n        require(bytes(newDob).length > 0, \"DOB is required\");\r\n        require(bytes(newEmail).length > 0, \"Email is required\");\r\n\r\n        UserInfo storage userInfo = registeredUsers[msg.sender];\r\n        userInfo.name = newName;\r\n        userInfo.dob = newDob;\r\n        userInfo.email = newEmail;\r\n\r\n        emit UserInfoUpdated(msg.sender, newName, newDob, newEmail);\r\n    }\r\n\r\n    function deleteUser() external onlyRegisteredUser(msg.sender) {\r\n        delete registeredUsers[msg.sender];\r\n        emit UserDeleted(msg.sender);\r\n    }\r\n}\r\n\r\ncontract Chama {\r\n    struct Member {\r\n        uint256 memberId;\r\n        address memberAddress;\r\n        uint256 contribution;\r\n        uint256 shares;\r\n        bool active;\r\n    }\r\n\r\n     struct ChamaData {\r\n        address chamaOwner;\r\n        string chamaName;\r\n        string chamaDescription;\r\n        uint256 minContributionAmount;\r\n        uint256 maxContributionAmount;\r\n        uint256 contributionCycleDuration;\r\n        uint256 lastContributionCycleStart;\r\n        uint256 totalContributions;\r\n        uint256 totalShares;\r\n        uint256 nextMemberId;\r\n        mapping(uint256 => Member) members;\r\n        mapping(address => bool) isMember;\r\n        mapping(uint256 => mapping(uint256 => bool)) votes;\r\n    }\r\n\r\n    address public treasurer;\r\n    AggregatorV3Interface internal priceFeed;\r\n    mapping(uint256 => ChamaData) public chamas;\r\n    uint256 public nextChamaId;\r\n    UserRegistry private userRegistry;\r\n\r\n    event ChamaCreated(\r\n        uint256 indexed chamaId,\r\n        address indexed chamaOwner,\r\n        string chamaName,\r\n        string chamaDescription,\r\n        uint256 minContributionAmount,\r\n        uint256 maxContributionAmount,\r\n        uint256 contributionCycleDuration\r\n    );\r\n\r\n    event MemberAdded(\r\n        uint256 indexed chamaId,\r\n        uint256 indexed memberId,\r\n        address indexed memberAddress,\r\n        uint256 contribution,\r\n        uint256 shares\r\n    );\r\n\r\n    event ContributionMade(uint256 indexed chamaId, address indexed memberAddress, uint256 contribution);\r\n    event ShareDistribution(uint256 indexed chamaId, uint256 indexed memberId, uint256 shares);\r\n    event VoteCasted(uint256 indexed chamaId, uint256 indexed memberId, uint256 proposalId);\r\n    event ChamaUpdated(\r\n        uint256 indexed chamaId,\r\n        uint256 minContributionAmount,\r\n        uint256 maxContributionAmount,\r\n        uint256 contributionCycleDuration\r\n    );\r\n\r\n    modifier onlyTreasurer() {\r\n        require(msg.sender == treasurer, \"Only the treasurer can perform this action\");\r\n        _;\r\n    }\r\n\r\n    modifier onlyChamaOwner(uint256 _chamaId) {\r\n        require(chamas[_chamaId].chamaOwner == msg.sender, \"Only the chama owner can perform this action\");\r\n        _;\r\n    }\r\n\r\n    modifier onlyMember(uint256 _chamaId, uint256 _memberId) {\r\n        require(\r\n            chamas[_chamaId].members[_memberId].memberAddress == msg.sender ||\r\n            chamas[_chamaId].chamaOwner == msg.sender,\r\n            \"Only the member or chama owner can perform this action\"\r\n        );\r\n        _;\r\n    }\r\n\r\n    constructor(address _treasurer, address _priceFeed, address _userRegistry) {\r\n        treasurer = _treasurer;\r\n        priceFeed = AggregatorV3Interface(_priceFeed);\r\n        userRegistry = UserRegistry(_userRegistry);\r\n        nextChamaId = 1;\r\n    }\r\n\r\n    function initializeChamaData(\r\n        uint256 _chamaId,\r\n        address _chamaOwner,\r\n        string memory _chamaName,\r\n        string memory _chamaDescription,\r\n        uint256 _minContributionAmount,\r\n        uint256 _maxContributionAmount,\r\n        uint256 _contributionCycleDuration\r\n    ) private {\r\n        ChamaData storage chama = chamas[_chamaId];\r\n        chama.chamaOwner = _chamaOwner;\r\n        chama.chamaName = _chamaName;\r\n        chama.chamaDescription = _chamaDescription;\r\n        chama.minContributionAmount = _minContributionAmount;\r\n        chama.maxContributionAmount = _maxContributionAmount;\r\n        chama.contributionCycleDuration = _contributionCycleDuration;\r\n        chama.lastContributionCycleStart = block.timestamp;\r\n    }\r\n\r\n    function createChama(\r\n        uint256 _minContributionAmount,\r\n        uint256 _maxContributionAmount,\r\n        uint256 _contributionCycleDuration,\r\n        address _chamaOwner,\r\n        string memory _chamaName,\r\n        string memory _chamaDescription\r\n    ) external {\r\n        require(_minContributionAmount > 0, \"Minimum contribution amount must be greater than zero\");\r\n        require(_maxContributionAmount >= _minContributionAmount, \"Maximum contribution amount must be greater than or equal to minimum contribution amount\");\r\n        require(_contributionCycleDuration > 0, \"Contribution cycle duration must be greater than zero\");\r\n        require(userRegistry.isRegistered(_chamaOwner), \"Chama owner is not registered\");\r\n        require(_chamaOwner != address(0), \"Chama owner address is required\");\r\n        require(bytes(_chamaName).length > 0, \"Chama name is required\");\r\n        require(bytes(_chamaDescription).length > 0, \"Chama description is required\");\r\n\r\n        uint256 chamaId = nextChamaId;\r\n        initializeChamaData(chamaId, _chamaOwner, _chamaName, _chamaDescription, _minContributionAmount, _maxContributionAmount, _contributionCycleDuration);\r\n\r\n        emit ChamaCreated(chamaId, _chamaOwner, _chamaName, _chamaDescription, _minContributionAmount, _maxContributionAmount, _contributionCycleDuration);\r\n        nextChamaId++;\r\n    }\r\n\r\n    function joinChama(uint256 _chamaId) external payable {\r\n        require(_chamaId < nextChamaId, \"Invalid chama ID\");\r\n        require(chamas[_chamaId].chamaOwner != address(0), \"Chama does not exist\");\r\n        require(!chamas[_chamaId].isMember[msg.sender], \"Already a member\");\r\n        require(userRegistry.isRegistered(msg.sender), \"User is not registered\");\r\n\r\n        ChamaData storage chama = chamas[_chamaId];\r\n        require(msg.sender != chama.chamaOwner, \"Chama owner cannot join as a member\");\r\n\r\n        // Calculate shares based on user's contribution compared to total contribution/chama worth\r\n        uint256 userContribution = msg.value;\r\n        uint256 totalContribution = chama.totalContributions + userContribution;\r\n        uint256 totalShares = chama.totalShares;\r\n        uint256 userShares = totalContribution > 0 ? (userContribution * totalShares) / totalContribution : 0;\r\n\r\n        chama.members[chama.nextMemberId] = Member(chama.nextMemberId, msg.sender, userContribution, userShares, true);\r\n        chama.isMember[msg.sender] = true;\r\n        chama.totalContributions += userContribution;\r\n        chama.totalShares += userShares;\r\n\r\n        emit MemberAdded(_chamaId, chama.nextMemberId, msg.sender, userContribution, userShares);\r\n\r\n        chama.nextMemberId++;\r\n    }\r\n\r\n    function makeContribution(uint256 _chamaId) external payable {\r\n        require(_chamaId < nextChamaId, \"Invalid chama ID\");\r\n        require(chamas[_chamaId].isMember[msg.sender], \"Not a member\");\r\n        require(msg.value >= chamas[_chamaId].minContributionAmount, \"Contribution amount too low\");\r\n        require(msg.value <= chamas[_chamaId].maxContributionAmount, \"Contribution amount too high\");\r\n        require(isContributionCycleActive(_chamaId), \"Contribution cycle is not active\");\r\n\r\n        ChamaData storage chama = chamas[_chamaId];\r\n        Member storage member = chama.members[getMemberId(_chamaId, msg.sender)];\r\n\r\n        member.contribution += msg.value;\r\n        chama.totalContributions += msg.value;\r\n\r\n        emit ContributionMade(_chamaId, msg.sender, msg.value);\r\n    }\r\n\r\n    function distributeShares(uint256 _chamaId, uint256 _memberId, uint256 _shares) external onlyTreasurer {\r\n        require(_chamaId < nextChamaId, \"Invalid chama ID\");\r\n        require(chamas[_chamaId].members[_memberId].active, \"Member not found\");\r\n\r\n        ChamaData storage chama = chamas[_chamaId];\r\n        Member storage member = chama.members[_memberId];\r\n\r\n        member.shares += _shares;\r\n        chama.totalShares += _shares;\r\n\r\n        emit ShareDistribution(_chamaId, _memberId, _shares);\r\n    }\r\n\r\n    function proposeVote(uint256 _chamaId, uint256 _memberId, uint256 _proposalId) external onlyTreasurer {\r\n        require(_chamaId < nextChamaId, \"Invalid chama ID\");\r\n        require(chamas[_chamaId].members[_memberId].active, \"Member not found\");\r\n\r\n        ChamaData storage chama = chamas[_chamaId];\r\n        chama.votes[_memberId][_proposalId] = true;\r\n\r\n        emit VoteCasted(_chamaId, _memberId, _proposalId);\r\n    }\r\n\r\n    function updateChama(\r\n        uint256 _chamaId,\r\n        uint256 _minContributionAmount,\r\n        uint256 _maxContributionAmount,\r\n        uint256 _contributionCycleDuration\r\n    ) external onlyChamaOwner(_chamaId) {\r\n        require(_chamaId < nextChamaId, \"Invalid chama ID\");\r\n        require(_minContributionAmount > 0, \"Minimum contribution amount must be greater than zero\");\r\n        require(_maxContributionAmount >= _minContributionAmount, \"Maximum contribution amount must be greater than or equal to minimum contribution amount\");\r\n        require(_contributionCycleDuration > 0, \"Contribution cycle duration must be greater than zero\");\r\n\r\n        ChamaData storage chama = chamas[_chamaId];\r\n        chama.minContributionAmount = _minContributionAmount;\r\n        chama.maxContributionAmount = _maxContributionAmount;\r\n        chama.contributionCycleDuration = _contributionCycleDuration;\r\n\r\n        emit ChamaUpdated(_chamaId, _minContributionAmount, _maxContributionAmount, _contributionCycleDuration);\r\n    }\r\n\r\n    function deleteChama(uint256 _chamaId) external onlyChamaOwner(_chamaId) {\r\n        require(_chamaId < nextChamaId, \"Invalid chama ID\");\r\n\r\n        // Perform any necessary cleanup or transfer remaining funds before deleting the chama\r\n\r\n        delete chamas[_chamaId];\r\n    }\r\n\r\n    function getMemberId(uint256 _chamaId, address _memberAddress) public view returns (uint256) {\r\n        ChamaData storage chama = chamas[_chamaId];\r\n    \r\n        if (_memberAddress == chama.chamaOwner) {\r\n            return chama.nextMemberId;  // Return chama owner ID\r\n        }\r\n    \r\n        for (uint256 i = 1; i < chama.nextMemberId; i++) {\r\n            if (chama.members[i].memberAddress == _memberAddress) {\r\n                return i;\r\n            }\r\n        }\r\n    \r\n        revert(\"Member not found\");\r\n    }\r\n\r\n    function isContributionCycleActive(uint256 _chamaId) public view returns (bool) {\r\n        ChamaData storage chama = chamas[_chamaId];\r\n        return block.timestamp >= chama.lastContributionCycleStart && block.timestamp < chama.lastContributionCycleStart + chama.contributionCycleDuration;\r\n    }\r\n\r\n    function startNextContributionCycle(uint256 _chamaId) external onlyChamaOwner(_chamaId) {\r\n        require(_chamaId < nextChamaId, \"Invalid chama ID\");\r\n\r\n        ChamaData storage chama = chamas[_chamaId];\r\n        require(!isContributionCycleActive(_chamaId), \"Contribution cycle is already active\");\r\n\r\n        chama.lastContributionCycleStart = block.timestamp;\r\n    }\r\n\r\n    function getChamaDetails(uint256 _chamaId)\r\n        public\r\n        view\r\n        returns (\r\n            uint256 chamaId,\r\n            address chamaOwner,\r\n            string memory chamaName,\r\n            string memory chamaDescription,\r\n            uint256 minContributionAmount,\r\n            uint256 maxContributionAmount,\r\n            uint256 contributionCycleDuration\r\n        )\r\n    {\r\n        require(_chamaId < nextChamaId, \"Invalid chama ID\");\r\n\r\n        ChamaData storage chama = chamas[_chamaId];\r\n\r\n        return (\r\n            _chamaId,\r\n            chama.chamaOwner,\r\n            chama.chamaName,\r\n            chama.chamaDescription,\r\n            chama.minContributionAmount,\r\n            chama.maxContributionAmount,\r\n            chama.contributionCycleDuration\r\n        );\r\n    }\r\n\r\n    function getMemberDetails(uint256 _chamaId, uint256 _memberId)\r\n        public\r\n        view\r\n        returns (\r\n            uint256 memberId,\r\n            address memberAddress,\r\n            uint256 contribution,\r\n            uint256 shares,\r\n            bool active\r\n        )\r\n    {\r\n        require(_chamaId < nextChamaId, \"Invalid chama ID\");\r\n\r\n        ChamaData storage chama = chamas[_chamaId];\r\n        Member storage member;\r\n\r\n        if (_memberId == 0) {\r\n            // Return chama owner as member\r\n            require(msg.sender == chama.chamaOwner, \"Only the chama owner can retrieve their details\");\r\n            member = chama.members[chama.nextMemberId];\r\n        } else {\r\n            // Return regular member\r\n            member = chama.members[_memberId];\r\n            require(member.memberAddress == msg.sender, \"Only the member can retrieve their details\");\r\n        }\r\n\r\n        (string memory name, string memory dob, string memory email) = userRegistry.getUserInfo(member.memberAddress);\r\n\r\n        return (member.memberId, member.memberAddress, member.contribution, member.shares, member.active);\r\n    }\r\n\r\n    function getAllChamas() external view returns (uint256[] memory) {\r\n        uint256[] memory chamaIds = new uint256[](nextChamaId - 1);\r\n        for (uint256 i = 1; i < nextChamaId; i++) {\r\n            chamaIds[i - 1] = i;\r\n        }\r\n        return chamaIds;\r\n    }\r\n\r\n    function getOwnedChamas(address _user) public view returns (uint256[] memory) {\r\n        uint256[] memory ownedChamaIds = new uint256[](nextChamaId - 1);\r\n        uint256 count = 0;\r\n\r\n        for (uint256 i = 1; i < nextChamaId; i++) {\r\n            if (chamas[i].chamaOwner == _user) {\r\n                ownedChamaIds[count] = i;\r\n                count++;\r\n            }\r\n        }\r\n\r\n        // Resize the array to remove unused slots\r\n        assembly {\r\n            mstore(ownedChamaIds, count)\r\n        }\r\n\r\n        return ownedChamaIds;\r\n    }\r\n\r\n    function getJoinedChamas(address _user) public view returns (uint256[] memory) {\r\n        uint256[] memory joinedChamaIds = new uint256[](nextChamaId - 1);\r\n        uint256 count = 0;\r\n\r\n        for (uint256 i = 1; i < nextChamaId; i++) {\r\n            if (chamas[i].isMember[_user]) {\r\n                joinedChamaIds[count] = i;\r\n                count++;\r\n            }\r\n        }\r\n\r\n        // Resize the array to remove unused slots\r\n        assembly {\r\n            mstore(joinedChamaIds, count)\r\n        }\r\n\r\n        return joinedChamaIds;\r\n    }\r\n\r\n}\r\n",
  "sourcePath": "C:\\Users\\fredt\\chainlink_hackathon\\contracts\\Chama.sol",
  "compiler": {
    "name": "solc",
    "version": "0.8.16+commit.07a7930e.Emscripten.clang"
  },
  "schemaVersion": "3.4.14",
  "updatedAt": "2023-06-12T02:48:06.408Z",
  "networkType": "ethereum",
  "devdoc": {
    "kind": "dev",
    "methods": {},
    "version": 1
  },
  "userdoc": {
    "kind": "user",
    "methods": {},
    "version": 1
  }
}