{
  "contractName": "UserRegistry",
  "abi": [
    {
      "anonymous": false,
      "inputs": [
        {
          "indexed": true,
          "internalType": "address",
          "name": "user",
          "type": "address"
        }
      ],
      "name": "UserDeleted",
      "type": "event"
    },
    {
      "anonymous": false,
      "inputs": [
        {
          "indexed": true,
          "internalType": "address",
          "name": "user",
          "type": "address"
        },
        {
          "indexed": false,
          "internalType": "string",
          "name": "name",
          "type": "string"
        },
        {
          "indexed": false,
          "internalType": "string",
          "name": "dob",
          "type": "string"
        },
        {
          "indexed": false,
          "internalType": "string",
          "name": "email",
          "type": "string"
        }
      ],
      "name": "UserInfoUpdated",
      "type": "event"
    },
    {
      "anonymous": false,
      "inputs": [
        {
          "indexed": true,
          "internalType": "address",
          "name": "user",
          "type": "address"
        },
        {
          "indexed": false,
          "internalType": "string",
          "name": "name",
          "type": "string"
        },
        {
          "indexed": false,
          "internalType": "string",
          "name": "dob",
          "type": "string"
        },
        {
          "indexed": false,
          "internalType": "string",
          "name": "email",
          "type": "string"
        }
      ],
      "name": "UserRegistered",
      "type": "event"
    },
    {
      "inputs": [
        {
          "internalType": "address",
          "name": "userAddress",
          "type": "address"
        },
        {
          "internalType": "string",
          "name": "name",
          "type": "string"
        },
        {
          "internalType": "string",
          "name": "dob",
          "type": "string"
        },
        {
          "internalType": "string",
          "name": "email",
          "type": "string"
        }
      ],
      "name": "register",
      "outputs": [],
      "stateMutability": "nonpayable",
      "type": "function"
    },
    {
      "inputs": [
        {
          "internalType": "address",
          "name": "userAddress",
          "type": "address"
        }
      ],
      "name": "isRegistered",
      "outputs": [
        {
          "internalType": "bool",
          "name": "",
          "type": "bool"
        }
      ],
      "stateMutability": "view",
      "type": "function",
      "constant": true
    },
    {
      "inputs": [
        {
          "internalType": "address",
          "name": "userAddress",
          "type": "address"
        }
      ],
      "name": "getUserInfo",
      "outputs": [
        {
          "internalType": "string",
          "name": "name",
          "type": "string"
        },
        {
          "internalType": "string",
          "name": "dob",
          "type": "string"
        },
        {
          "internalType": "string",
          "name": "email",
          "type": "string"
        }
      ],
      "stateMutability": "view",
      "type": "function",
      "constant": true
    },
    {
      "inputs": [
        {
          "internalType": "string",
          "name": "newName",
          "type": "string"
        },
        {
          "internalType": "string",
          "name": "newDob",
          "type": "string"
        },
        {
          "internalType": "string",
          "name": "newEmail",
          "type": "string"
        }
      ],
      "name": "updateUserInfo",
      "outputs": [],
      "stateMutability": "nonpayable",
      "type": "function"
    },
    {
      "inputs": [],
      "name": "deleteUser",
      "outputs": [],
      "stateMutability": "nonpayable",
      "type": "function"
    }
  ],
  "bytecode": "0x608060405234801561001057600080fd5b50611305806100206000396000f3fe608060405234801561001057600080fd5b50600436106100575760003560e01c8063026ff05e1461005c578063063d93d8146100665780636386c1c714610082578063c3c5a547146100b4578063facea43a146100e4575b600080fd5b610064610100565b005b610080600480360381019061007b9190610b3b565b610248565b005b61009c60048036038101906100979190610bf6565b61049a565b6040516100ab93929190610ca2565b60405180910390f35b6100ce60048036038101906100c99190610bf6565b61069f565b6040516100db9190610d09565b60405180910390f35b6100fe60048036038101906100f99190610d24565b6106f8565b005b3360008060008373ffffffffffffffffffffffffffffffffffffffff1673ffffffffffffffffffffffffffffffffffffffff168152602001908152602001600020600101805461014f90610dfa565b905011610191576040517f08c379a000000000000000000000000000000000000000000000000000000000815260040161018890610e77565b60405180910390fd5b6000803373ffffffffffffffffffffffffffffffffffffffff1673ffffffffffffffffffffffffffffffffffffffff168152602001908152602001600020600080820160006101e09190610926565b6001820160006101f09190610926565b6002820160006102009190610926565b50503373ffffffffffffffffffffffffffffffffffffffff167f4bc56f1321288dfb5b416cb3a7fd188723979f9e866c91d88eccf7fca039d03960405160405180910390a250565b600083511161028c576040517f08c379a000000000000000000000000000000000000000000000000000000000815260040161028390610ee3565b60405180910390fd5b60008251116102d0576040517f08c379a00000000000000000000000000000000000000000000000000000000081526004016102c790610f4f565b60405180910390fd5b6000815111610314576040517f08c379a000000000000000000000000000000000000000000000000000000000815260040161030b90610fbb565b60405180910390fd5b60008060008673ffffffffffffffffffffffffffffffffffffffff1673ffffffffffffffffffffffffffffffffffffffff168152602001908152602001600020600101805461036290610dfa565b9050146103a4576040517f08c379a000000000000000000000000000000000000000000000000000000000815260040161039b90611027565b60405180910390fd5b6040518060600160405280848152602001838152602001828152506000808673ffffffffffffffffffffffffffffffffffffffff1673ffffffffffffffffffffffffffffffffffffffff168152602001908152602001600020600082015181600001908161041291906111fd565b50602082015181600101908161042891906111fd565b50604082015181600201908161043e91906111fd565b509050508373ffffffffffffffffffffffffffffffffffffffff167f509c70f523067009f7db7f46db6956d7af8b679323680dc3821a8bad001ac1e184848460405161048c93929190610ca2565b60405180910390a250505050565b606080606060008060008673ffffffffffffffffffffffffffffffffffffffff1673ffffffffffffffffffffffffffffffffffffffff16815260200190815260200160002090508060000181600101826002018280546104f990610dfa565b80601f016020809104026020016040519081016040528092919081815260200182805461052590610dfa565b80156105725780601f1061054757610100808354040283529160200191610572565b820191906000526020600020905b81548152906001019060200180831161055557829003601f168201915b5050505050925081805461058590610dfa565b80601f01602080910402602001604051908101604052809291908181526020018280546105b190610dfa565b80156105fe5780601f106105d3576101008083540402835291602001916105fe565b820191906000526020600020905b8154815290600101906020018083116105e157829003601f168201915b5050505050915080805461061190610dfa565b80601f016020809104026020016040519081016040528092919081815260200182805461063d90610dfa565b801561068a5780601f1061065f5761010080835404028352916020019161068a565b820191906000526020600020905b81548152906001019060200180831161066d57829003601f168201915b50505050509050935093509350509193909250565b6000806000808473ffffffffffffffffffffffffffffffffffffffff1673ffffffffffffffffffffffffffffffffffffffff16815260200190815260200160002060010180546106ee90610dfa565b9050119050919050565b3360008060008373ffffffffffffffffffffffffffffffffffffffff1673ffffffffffffffffffffffffffffffffffffffff168152602001908152602001600020600101805461074790610dfa565b905011610789576040517f08c379a000000000000000000000000000000000000000000000000000000000815260040161078090610e77565b60405180910390fd5b60008451116107cd576040517f08c379a00000000000000000000000000000000000000000000000000000000081526004016107c490610ee3565b60405180910390fd5b6000835111610811576040517f08c379a000000000000000000000000000000000000000000000000000000000815260040161080890610f4f565b60405180910390fd5b6000825111610855576040517f08c379a000000000000000000000000000000000000000000000000000000000815260040161084c90610fbb565b60405180910390fd5b60008060003373ffffffffffffffffffffffffffffffffffffffff1673ffffffffffffffffffffffffffffffffffffffff1681526020019081526020016000209050848160000190816108a891906111fd565b50838160010190816108ba91906111fd565b50828160020190816108cc91906111fd565b503373ffffffffffffffffffffffffffffffffffffffff167ffd1109aef6dfd72baffef7dfdc53fb17460230f4df402dfb2db3e61033b6b9a586868660405161091793929190610ca2565b60405180910390a25050505050565b50805461093290610dfa565b6000825580601f106109445750610963565b601f0160209004906000526020600020908101906109629190610966565b5b50565b5b8082111561097f576000816000905550600101610967565b5090565b6000604051905090565b600080fd5b600080fd5b600073ffffffffffffffffffffffffffffffffffffffff82169050919050565b60006109c282610997565b9050919050565b6109d2816109b7565b81146109dd57600080fd5b50565b6000813590506109ef816109c9565b92915050565b600080fd5b600080fd5b6000601f19601f8301169050919050565b7f4e487b7100000000000000000000000000000000000000000000000000000000600052604160045260246000fd5b610a48826109ff565b810181811067ffffffffffffffff82111715610a6757610a66610a10565b5b80604052505050565b6000610a7a610983565b9050610a868282610a3f565b919050565b600067ffffffffffffffff821115610aa657610aa5610a10565b5b610aaf826109ff565b9050602081019050919050565b82818337600083830152505050565b6000610ade610ad984610a8b565b610a70565b905082815260208101848484011115610afa57610af96109fa565b5b610b05848285610abc565b509392505050565b600082601f830112610b2257610b216109f5565b5b8135610b32848260208601610acb565b91505092915050565b60008060008060808587031215610b5557610b5461098d565b5b6000610b63878288016109e0565b945050602085013567ffffffffffffffff811115610b8457610b83610992565b5b610b9087828801610b0d565b935050604085013567ffffffffffffffff811115610bb157610bb0610992565b5b610bbd87828801610b0d565b925050606085013567ffffffffffffffff811115610bde57610bdd610992565b5b610bea87828801610b0d565b91505092959194509250565b600060208284031215610c0c57610c0b61098d565b5b6000610c1a848285016109e0565b91505092915050565b600081519050919050565b600082825260208201905092915050565b60005b83811015610c5d578082015181840152602081019050610c42565b60008484015250505050565b6000610c7482610c23565b610c7e8185610c2e565b9350610c8e818560208601610c3f565b610c97816109ff565b840191505092915050565b60006060820190508181036000830152610cbc8186610c69565b90508181036020830152610cd08185610c69565b90508181036040830152610ce48184610c69565b9050949350505050565b60008115159050919050565b610d0381610cee565b82525050565b6000602082019050610d1e6000830184610cfa565b92915050565b600080600060608486031215610d3d57610d3c61098d565b5b600084013567ffffffffffffffff811115610d5b57610d5a610992565b5b610d6786828701610b0d565b935050602084013567ffffffffffffffff811115610d8857610d87610992565b5b610d9486828701610b0d565b925050604084013567ffffffffffffffff811115610db557610db4610992565b5b610dc186828701610b0d565b9150509250925092565b7f4e487b7100000000000000000000000000000000000000000000000000000000600052602260045260246000fd5b60006002820490506001821680610e1257607f821691505b602082108103610e2557610e24610dcb565b5b50919050565b7f55736572206e6f74207265676973746572656400000000000000000000000000600082015250565b6000610e61601383610c2e565b9150610e6c82610e2b565b602082019050919050565b60006020820190508181036000830152610e9081610e54565b9050919050565b7f4e616d6520697320726571756972656400000000000000000000000000000000600082015250565b6000610ecd601083610c2e565b9150610ed882610e97565b602082019050919050565b60006020820190508181036000830152610efc81610ec0565b9050919050565b7f444f422069732072657175697265640000000000000000000000000000000000600082015250565b6000610f39600f83610c2e565b9150610f4482610f03565b602082019050919050565b60006020820190508181036000830152610f6881610f2c565b9050919050565b7f456d61696c206973207265717569726564000000000000000000000000000000600082015250565b6000610fa5601183610c2e565b9150610fb082610f6f565b602082019050919050565b60006020820190508181036000830152610fd481610f98565b9050919050565b7f5573657220616c72656164792072656769737465726564000000000000000000600082015250565b6000611011601783610c2e565b915061101c82610fdb565b602082019050919050565b6000602082019050818103600083015261104081611004565b9050919050565b60008190508160005260206000209050919050565b60006020601f8301049050919050565b600082821b905092915050565b6000600883026110a97fffffffffffffffffffffffffffffffffffffffffffffffffffffffffffffffff8261106c565b6110b3868361106c565b95508019841693508086168417925050509392505050565b6000819050919050565b6000819050919050565b60006110fa6110f56110f0846110cb565b6110d5565b6110cb565b9050919050565b6000819050919050565b611114836110df565b61112861112082611101565b848454611079565b825550505050565b600090565b61113d611130565b61114881848461110b565b505050565b5b8181101561116c57611161600082611135565b60018101905061114e565b5050565b601f8211156111b15761118281611047565b61118b8461105c565b8101602085101561119a578190505b6111ae6111a68561105c565b83018261114d565b50505b505050565b600082821c905092915050565b60006111d4600019846008026111b6565b1980831691505092915050565b60006111ed83836111c3565b9150826002028217905092915050565b61120682610c23565b67ffffffffffffffff81111561121f5761121e610a10565b5b6112298254610dfa565b611234828285611170565b600060209050601f8311600181146112675760008415611255578287015190505b61125f85826111e1565b8655506112c7565b601f19841661127586611047565b60005b8281101561129d57848901518255600182019150602085019450602081019050611278565b868310156112ba57848901516112b6601f8916826111c3565b8355505b6001600288020188555050505b50505050505056fea26469706673582212202324bee9bb824e3e9d4e3fe534a290b1d1bcf8c9b3d9fb3fbc03b2a143e7908c64736f6c63430008100033",
  "immutableReferences": {},
  "source": "// SPDX-License-Identifier: MIT\r\npragma solidity ^0.8.0;\r\n\r\nimport \"@chainlink/contracts/src/v0.8/interfaces/AggregatorV3Interface.sol\";\r\n\r\ncontract UserRegistry {\r\n    struct UserInfo {\r\n        string name;\r\n        string dob;\r\n        string email;\r\n    }\r\n\r\n    mapping(address => UserInfo) private registeredUsers;\r\n\r\n    event UserRegistered(address indexed user, string name, string dob, string email);\r\n    event UserInfoUpdated(address indexed user, string name, string dob, string email);\r\n    event UserDeleted(address indexed user);\r\n\r\n    modifier onlyRegisteredUser(address userAddress) {\r\n        require(bytes(registeredUsers[userAddress].dob).length > 0, \"User not registered\");\r\n        _;\r\n    }\r\n\r\n    function register(address userAddress, string memory name, string memory dob, string memory email) external {\r\n        require(bytes(name).length > 0, \"Name is required\");\r\n        require(bytes(dob).length > 0, \"DOB is required\");\r\n        require(bytes(email).length > 0, \"Email is required\");\r\n        require(bytes(registeredUsers[userAddress].dob).length == 0, \"User already registered\");\r\n\r\n        registeredUsers[userAddress] = UserInfo(name, dob, email);\r\n        emit UserRegistered(userAddress, name, dob, email);\r\n    }\r\n\r\n    function isRegistered(address userAddress) external view returns (bool) {\r\n        return bytes(registeredUsers[userAddress].dob).length > 0;\r\n    }\r\n\r\n    function getUserInfo(address userAddress) external view returns (string memory name, string memory dob, string memory email) {\r\n        UserInfo storage userInfo = registeredUsers[userAddress];\r\n        return (userInfo.name, userInfo.dob, userInfo.email);\r\n    }\r\n\r\n    function updateUserInfo(string memory newName, string memory newDob, string memory newEmail) external onlyRegisteredUser(msg.sender) {\r\n        require(bytes(newName).length > 0, \"Name is required\");\r\n        require(bytes(newDob).length > 0, \"DOB is required\");\r\n        require(bytes(newEmail).length > 0, \"Email is required\");\r\n\r\n        UserInfo storage userInfo = registeredUsers[msg.sender];\r\n        userInfo.name = newName;\r\n        userInfo.dob = newDob;\r\n        userInfo.email = newEmail;\r\n\r\n        emit UserInfoUpdated(msg.sender, newName, newDob, newEmail);\r\n    }\r\n\r\n    function deleteUser() external onlyRegisteredUser(msg.sender) {\r\n        delete registeredUsers[msg.sender];\r\n        emit UserDeleted(msg.sender);\r\n    }\r\n}\r\n\r\ncontract Chama {\r\n    struct Member {\r\n        uint256 memberId;\r\n        address memberAddress;\r\n        uint256 contribution;\r\n        uint256 shares;\r\n        bool active;\r\n    }\r\n\r\n     struct ChamaData {\r\n        address chamaOwner;\r\n        string chamaName;\r\n        string chamaDescription;\r\n        uint256 minContributionAmount;\r\n        uint256 maxContributionAmount;\r\n        uint256 contributionCycleDuration;\r\n        uint256 lastContributionCycleStart;\r\n        uint256 totalContributions;\r\n        uint256 totalShares;\r\n        uint256 nextMemberId;\r\n        mapping(uint256 => Member) members;\r\n        mapping(address => bool) isMember;\r\n        mapping(uint256 => mapping(uint256 => bool)) votes;\r\n    }\r\n\r\n    address public treasurer;\r\n    AggregatorV3Interface internal priceFeed;\r\n    mapping(uint256 => ChamaData) public chamas;\r\n    uint256 public nextChamaId;\r\n    UserRegistry private userRegistry;\r\n\r\n    event ChamaCreated(\r\n        uint256 indexed chamaId,\r\n        address indexed chamaOwner,\r\n        string chamaName,\r\n        string chamaDescription,\r\n        uint256 minContributionAmount,\r\n        uint256 maxContributionAmount,\r\n        uint256 contributionCycleDuration\r\n    );\r\n\r\n    event MemberAdded(\r\n        uint256 indexed chamaId,\r\n        uint256 indexed memberId,\r\n        address indexed memberAddress,\r\n        uint256 contribution,\r\n        uint256 shares\r\n    );\r\n\r\n    event ContributionMade(uint256 indexed chamaId, address indexed memberAddress, uint256 contribution);\r\n    event ShareDistribution(uint256 indexed chamaId, uint256 indexed memberId, uint256 shares);\r\n    event VoteCasted(uint256 indexed chamaId, uint256 indexed memberId, uint256 proposalId);\r\n    event ChamaUpdated(\r\n        uint256 indexed chamaId,\r\n        uint256 minContributionAmount,\r\n        uint256 maxContributionAmount,\r\n        uint256 contributionCycleDuration\r\n    );\r\n\r\n    modifier onlyTreasurer() {\r\n        require(msg.sender == treasurer, \"Only the treasurer can perform this action\");\r\n        _;\r\n    }\r\n\r\n    modifier onlyChamaOwner(uint256 _chamaId) {\r\n        require(chamas[_chamaId].chamaOwner == msg.sender, \"Only the chama owner can perform this action\");\r\n        _;\r\n    }\r\n\r\n    modifier onlyMember(uint256 _chamaId, uint256 _memberId) {\r\n        require(\r\n            chamas[_chamaId].members[_memberId].memberAddress == msg.sender ||\r\n            chamas[_chamaId].chamaOwner == msg.sender,\r\n            \"Only the member or chama owner can perform this action\"\r\n        );\r\n        _;\r\n    }\r\n\r\n    constructor(address _treasurer, address _priceFeed, address _userRegistry) {\r\n        treasurer = _treasurer;\r\n        priceFeed = AggregatorV3Interface(_priceFeed);\r\n        userRegistry = UserRegistry(_userRegistry);\r\n        nextChamaId = 1;\r\n    }\r\n\r\n    function initializeChamaData(\r\n        uint256 _chamaId,\r\n        address _chamaOwner,\r\n        string memory _chamaName,\r\n        string memory _chamaDescription,\r\n        uint256 _minContributionAmount,\r\n        uint256 _maxContributionAmount,\r\n        uint256 _contributionCycleDuration\r\n    ) private {\r\n        ChamaData storage chama = chamas[_chamaId];\r\n        chama.chamaOwner = _chamaOwner;\r\n        chama.chamaName = _chamaName;\r\n        chama.chamaDescription = _chamaDescription;\r\n        chama.minContributionAmount = _minContributionAmount;\r\n        chama.maxContributionAmount = _maxContributionAmount;\r\n        chama.contributionCycleDuration = _contributionCycleDuration;\r\n        chama.lastContributionCycleStart = block.timestamp;\r\n    }\r\n\r\n    function createChama(\r\n        uint256 _minContributionAmount,\r\n        uint256 _maxContributionAmount,\r\n        uint256 _contributionCycleDuration,\r\n        address _chamaOwner,\r\n        string memory _chamaName,\r\n        string memory _chamaDescription\r\n    ) external {\r\n        require(_minContributionAmount > 0, \"Minimum contribution amount must be greater than zero\");\r\n        require(_maxContributionAmount >= _minContributionAmount, \"Maximum contribution amount must be greater than or equal to minimum contribution amount\");\r\n        require(_contributionCycleDuration > 0, \"Contribution cycle duration must be greater than zero\");\r\n        require(userRegistry.isRegistered(_chamaOwner), \"Chama owner is not registered\");\r\n        require(_chamaOwner != address(0), \"Chama owner address is required\");\r\n        require(bytes(_chamaName).length > 0, \"Chama name is required\");\r\n        require(bytes(_chamaDescription).length > 0, \"Chama description is required\");\r\n\r\n        uint256 chamaId = nextChamaId;\r\n        initializeChamaData(chamaId, _chamaOwner, _chamaName, _chamaDescription, _minContributionAmount, _maxContributionAmount, _contributionCycleDuration);\r\n\r\n        emit ChamaCreated(chamaId, _chamaOwner, _chamaName, _chamaDescription, _minContributionAmount, _maxContributionAmount, _contributionCycleDuration);\r\n        nextChamaId++;\r\n    }\r\n\r\n    function joinChama(uint256 _chamaId) external payable {\r\n        require(_chamaId < nextChamaId, \"Invalid chama ID\");\r\n        require(chamas[_chamaId].chamaOwner != address(0), \"Chama does not exist\");\r\n        require(!chamas[_chamaId].isMember[msg.sender], \"Already a member\");\r\n        require(userRegistry.isRegistered(msg.sender), \"User is not registered\");\r\n\r\n        ChamaData storage chama = chamas[_chamaId];\r\n        require(msg.sender != chama.chamaOwner, \"Chama owner cannot join as a member\");\r\n\r\n        // Calculate shares based on user's contribution compared to total contribution/chama worth\r\n        uint256 userContribution = msg.value;\r\n        uint256 totalContribution = chama.totalContributions + userContribution;\r\n        uint256 totalShares = chama.totalShares;\r\n        uint256 userShares = totalContribution > 0 ? (userContribution * totalShares) / totalContribution : 0;\r\n\r\n        chama.members[chama.nextMemberId] = Member(chama.nextMemberId, msg.sender, userContribution, userShares, true);\r\n        chama.isMember[msg.sender] = true;\r\n        chama.totalContributions += userContribution;\r\n        chama.totalShares += userShares;\r\n\r\n        emit MemberAdded(_chamaId, chama.nextMemberId, msg.sender, userContribution, userShares);\r\n\r\n        chama.nextMemberId++;\r\n    }\r\n\r\n    function makeContribution(uint256 _chamaId) external payable {\r\n        require(_chamaId < nextChamaId, \"Invalid chama ID\");\r\n        require(chamas[_chamaId].isMember[msg.sender], \"Not a member\");\r\n        require(msg.value >= chamas[_chamaId].minContributionAmount, \"Contribution amount too low\");\r\n        require(msg.value <= chamas[_chamaId].maxContributionAmount, \"Contribution amount too high\");\r\n        require(isContributionCycleActive(_chamaId), \"Contribution cycle is not active\");\r\n\r\n        ChamaData storage chama = chamas[_chamaId];\r\n        Member storage member = chama.members[getMemberId(_chamaId, msg.sender)];\r\n\r\n        member.contribution += msg.value;\r\n        chama.totalContributions += msg.value;\r\n\r\n        emit ContributionMade(_chamaId, msg.sender, msg.value);\r\n    }\r\n\r\n    function distributeShares(uint256 _chamaId, uint256 _memberId, uint256 _shares) external onlyTreasurer {\r\n        require(_chamaId < nextChamaId, \"Invalid chama ID\");\r\n        require(chamas[_chamaId].members[_memberId].active, \"Member not found\");\r\n\r\n        ChamaData storage chama = chamas[_chamaId];\r\n        Member storage member = chama.members[_memberId];\r\n\r\n        member.shares += _shares;\r\n        chama.totalShares += _shares;\r\n\r\n        emit ShareDistribution(_chamaId, _memberId, _shares);\r\n    }\r\n\r\n    function proposeVote(uint256 _chamaId, uint256 _memberId, uint256 _proposalId) external onlyTreasurer {\r\n        require(_chamaId < nextChamaId, \"Invalid chama ID\");\r\n        require(chamas[_chamaId].members[_memberId].active, \"Member not found\");\r\n\r\n        ChamaData storage chama = chamas[_chamaId];\r\n        chama.votes[_memberId][_proposalId] = true;\r\n\r\n        emit VoteCasted(_chamaId, _memberId, _proposalId);\r\n    }\r\n\r\n    function updateChama(\r\n        uint256 _chamaId,\r\n        uint256 _minContributionAmount,\r\n        uint256 _maxContributionAmount,\r\n        uint256 _contributionCycleDuration\r\n    ) external onlyChamaOwner(_chamaId) {\r\n        require(_chamaId < nextChamaId, \"Invalid chama ID\");\r\n        require(_minContributionAmount > 0, \"Minimum contribution amount must be greater than zero\");\r\n        require(_maxContributionAmount >= _minContributionAmount, \"Maximum contribution amount must be greater than or equal to minimum contribution amount\");\r\n        require(_contributionCycleDuration > 0, \"Contribution cycle duration must be greater than zero\");\r\n\r\n        ChamaData storage chama = chamas[_chamaId];\r\n        chama.minContributionAmount = _minContributionAmount;\r\n        chama.maxContributionAmount = _maxContributionAmount;\r\n        chama.contributionCycleDuration = _contributionCycleDuration;\r\n\r\n        emit ChamaUpdated(_chamaId, _minContributionAmount, _maxContributionAmount, _contributionCycleDuration);\r\n    }\r\n\r\n    function deleteChama(uint256 _chamaId) external onlyChamaOwner(_chamaId) {\r\n        require(_chamaId < nextChamaId, \"Invalid chama ID\");\r\n\r\n        // Perform any necessary cleanup or transfer remaining funds before deleting the chama\r\n\r\n        delete chamas[_chamaId];\r\n    }\r\n\r\n    function getMemberId(uint256 _chamaId, address _memberAddress) public view returns (uint256) {\r\n        ChamaData storage chama = chamas[_chamaId];\r\n    \r\n        if (_memberAddress == chama.chamaOwner) {\r\n            return chama.nextMemberId;  // Return chama owner ID\r\n        }\r\n    \r\n        for (uint256 i = 1; i < chama.nextMemberId; i++) {\r\n            if (chama.members[i].memberAddress == _memberAddress) {\r\n                return i;\r\n            }\r\n        }\r\n    \r\n        revert(\"Member not found\");\r\n    }\r\n\r\n    function isContributionCycleActive(uint256 _chamaId) public view returns (bool) {\r\n        ChamaData storage chama = chamas[_chamaId];\r\n        return block.timestamp >= chama.lastContributionCycleStart && block.timestamp < chama.lastContributionCycleStart + chama.contributionCycleDuration;\r\n    }\r\n\r\n    function startNextContributionCycle(uint256 _chamaId) external onlyChamaOwner(_chamaId) {\r\n        require(_chamaId < nextChamaId, \"Invalid chama ID\");\r\n\r\n        ChamaData storage chama = chamas[_chamaId];\r\n        require(!isContributionCycleActive(_chamaId), \"Contribution cycle is already active\");\r\n\r\n        chama.lastContributionCycleStart = block.timestamp;\r\n    }\r\n\r\n    function getChamaDetails(uint256 _chamaId)\r\n        public\r\n        view\r\n        returns (\r\n            uint256 chamaId,\r\n            address chamaOwner,\r\n            string memory chamaName,\r\n            string memory chamaDescription,\r\n            uint256 minContributionAmount,\r\n            uint256 maxContributionAmount,\r\n            uint256 contributionCycleDuration\r\n        )\r\n    {\r\n        require(_chamaId < nextChamaId, \"Invalid chama ID\");\r\n\r\n        ChamaData storage chama = chamas[_chamaId];\r\n\r\n        return (\r\n            _chamaId,\r\n            chama.chamaOwner,\r\n            chama.chamaName,\r\n            chama.chamaDescription,\r\n            chama.minContributionAmount,\r\n            chama.maxContributionAmount,\r\n            chama.contributionCycleDuration\r\n        );\r\n    }\r\n\r\n    function getMemberDetails(uint256 _chamaId, uint256 _memberId)\r\n        public\r\n        view\r\n        returns (\r\n            uint256 memberId,\r\n            address memberAddress,\r\n            uint256 contribution,\r\n            uint256 shares,\r\n            bool active\r\n        )\r\n    {\r\n        require(_chamaId < nextChamaId, \"Invalid chama ID\");\r\n\r\n        ChamaData storage chama = chamas[_chamaId];\r\n        Member storage member;\r\n\r\n        if (_memberId == 0) {\r\n            // Return chama owner as member\r\n            require(msg.sender == chama.chamaOwner, \"Only the chama owner can retrieve their details\");\r\n            member = chama.members[chama.nextMemberId];\r\n        } else {\r\n            // Return regular member\r\n            member = chama.members[_memberId];\r\n            require(member.memberAddress == msg.sender, \"Only the member can retrieve their details\");\r\n        }\r\n\r\n        (string memory name, string memory dob, string memory email) = userRegistry.getUserInfo(member.memberAddress);\r\n\r\n        return (member.memberId, member.memberAddress, member.contribution, member.shares, member.active);\r\n    }\r\n\r\n    function getAllChamas() external view returns (uint256[] memory) {\r\n        uint256[] memory chamaIds = new uint256[](nextChamaId - 1);\r\n        for (uint256 i = 1; i < nextChamaId; i++) {\r\n            chamaIds[i - 1] = i;\r\n        }\r\n        return chamaIds;\r\n    }\r\n\r\n    function getOwnedChamas(address _user) public view returns (uint256[] memory) {\r\n        uint256[] memory ownedChamaIds = new uint256[](nextChamaId - 1);\r\n        uint256 count = 0;\r\n\r\n        for (uint256 i = 1; i < nextChamaId; i++) {\r\n            if (chamas[i].chamaOwner == _user) {\r\n                ownedChamaIds[count] = i;\r\n                count++;\r\n            }\r\n        }\r\n\r\n        // Resize the array to remove unused slots\r\n        assembly {\r\n            mstore(ownedChamaIds, count)\r\n        }\r\n\r\n        return ownedChamaIds;\r\n    }\r\n\r\n    function getJoinedChamas(address _user) public view returns (uint256[] memory) {\r\n        uint256[] memory joinedChamaIds = new uint256[](nextChamaId - 1);\r\n        uint256 count = 0;\r\n\r\n        for (uint256 i = 1; i < nextChamaId; i++) {\r\n            if (chamas[i].isMember[_user]) {\r\n                joinedChamaIds[count] = i;\r\n                count++;\r\n            }\r\n        }\r\n\r\n        // Resize the array to remove unused slots\r\n        assembly {\r\n            mstore(joinedChamaIds, count)\r\n        }\r\n\r\n        return joinedChamaIds;\r\n    }\r\n\r\n}\r\n",
  "sourcePath": "C:\\Users\\fredt\\chainlink_hackathon\\contracts\\Chama.sol",
  "compiler": {
    "name": "solc",
    "version": "0.8.16+commit.07a7930e.Emscripten.clang"
  },
  "schemaVersion": "3.4.14",
  "updatedAt": "2023-06-12T02:48:06.435Z",
  "networkType": "ethereum",
  "devdoc": {
    "kind": "dev",
    "methods": {},
    "version": 1
  },
  "userdoc": {
    "kind": "user",
    "methods": {},
    "version": 1
  }
}